{
  "contractName": "NFT",
  "abi": [
    {
      "inputs": [
        {
          "internalType": "string",
          "name": "name_",
          "type": "string"
        },
        {
          "internalType": "string",
          "name": "symbol_",
          "type": "string"
        },
        {
          "internalType": "address",
          "name": "_marketAddress",
          "type": "address"
        }
      ],
      "stateMutability": "nonpayable",
      "type": "constructor"
    },
    {
      "anonymous": false,
      "inputs": [
        {
          "indexed": true,
          "internalType": "address",
          "name": "owner",
          "type": "address"
        },
        {
          "indexed": true,
          "internalType": "address",
          "name": "approved",
          "type": "address"
        },
        {
          "indexed": true,
          "internalType": "uint256",
          "name": "tokenId",
          "type": "uint256"
        }
      ],
      "name": "Approval",
      "type": "event"
    },
    {
      "anonymous": false,
      "inputs": [
        {
          "indexed": true,
          "internalType": "address",
          "name": "owner",
          "type": "address"
        },
        {
          "indexed": true,
          "internalType": "address",
          "name": "operator",
          "type": "address"
        },
        {
          "indexed": false,
          "internalType": "bool",
          "name": "approved",
          "type": "bool"
        }
      ],
      "name": "ApprovalForAll",
      "type": "event"
    },
    {
      "anonymous": false,
      "inputs": [
        {
          "indexed": true,
          "internalType": "address",
          "name": "from",
          "type": "address"
        },
        {
          "indexed": true,
          "internalType": "address",
          "name": "to",
          "type": "address"
        },
        {
          "indexed": true,
          "internalType": "uint256",
          "name": "tokenId",
          "type": "uint256"
        }
      ],
      "name": "Transfer",
      "type": "event"
    },
    {
      "inputs": [
        {
          "internalType": "address",
          "name": "to",
          "type": "address"
        },
        {
          "internalType": "uint256",
          "name": "tokenId",
          "type": "uint256"
        }
      ],
      "name": "approve",
      "outputs": [],
      "stateMutability": "nonpayable",
      "type": "function"
    },
    {
      "inputs": [
        {
          "internalType": "address",
          "name": "owner",
          "type": "address"
        }
      ],
      "name": "balanceOf",
      "outputs": [
        {
          "internalType": "uint256",
          "name": "",
          "type": "uint256"
        }
      ],
      "stateMutability": "view",
      "type": "function",
      "constant": true
    },
    {
      "inputs": [
        {
          "internalType": "uint256",
          "name": "tokenId",
          "type": "uint256"
        }
      ],
      "name": "getApproved",
      "outputs": [
        {
          "internalType": "address",
          "name": "",
          "type": "address"
        }
      ],
      "stateMutability": "view",
      "type": "function",
      "constant": true
    },
    {
      "inputs": [
        {
          "internalType": "address",
          "name": "owner",
          "type": "address"
        },
        {
          "internalType": "address",
          "name": "operator",
          "type": "address"
        }
      ],
      "name": "isApprovedForAll",
      "outputs": [
        {
          "internalType": "bool",
          "name": "",
          "type": "bool"
        }
      ],
      "stateMutability": "view",
      "type": "function",
      "constant": true
    },
    {
      "inputs": [],
      "name": "name",
      "outputs": [
        {
          "internalType": "string",
          "name": "",
          "type": "string"
        }
      ],
      "stateMutability": "view",
      "type": "function",
      "constant": true
    },
    {
      "inputs": [
        {
          "internalType": "uint256",
          "name": "tokenId",
          "type": "uint256"
        }
      ],
      "name": "ownerOf",
      "outputs": [
        {
          "internalType": "address",
          "name": "",
          "type": "address"
        }
      ],
      "stateMutability": "view",
      "type": "function",
      "constant": true
    },
    {
      "inputs": [
        {
          "internalType": "address",
          "name": "from",
          "type": "address"
        },
        {
          "internalType": "address",
          "name": "to",
          "type": "address"
        },
        {
          "internalType": "uint256",
          "name": "tokenId",
          "type": "uint256"
        }
      ],
      "name": "safeTransferFrom",
      "outputs": [],
      "stateMutability": "nonpayable",
      "type": "function"
    },
    {
      "inputs": [
        {
          "internalType": "address",
          "name": "from",
          "type": "address"
        },
        {
          "internalType": "address",
          "name": "to",
          "type": "address"
        },
        {
          "internalType": "uint256",
          "name": "tokenId",
          "type": "uint256"
        },
        {
          "internalType": "bytes",
          "name": "_data",
          "type": "bytes"
        }
      ],
      "name": "safeTransferFrom",
      "outputs": [],
      "stateMutability": "nonpayable",
      "type": "function"
    },
    {
      "inputs": [
        {
          "internalType": "address",
          "name": "operator",
          "type": "address"
        },
        {
          "internalType": "bool",
          "name": "approved",
          "type": "bool"
        }
      ],
      "name": "setApprovalForAll",
      "outputs": [],
      "stateMutability": "nonpayable",
      "type": "function"
    },
    {
      "inputs": [
        {
          "internalType": "bytes4",
          "name": "interfaceId",
          "type": "bytes4"
        }
      ],
      "name": "supportsInterface",
      "outputs": [
        {
          "internalType": "bool",
          "name": "",
          "type": "bool"
        }
      ],
      "stateMutability": "view",
      "type": "function",
      "constant": true
    },
    {
      "inputs": [],
      "name": "symbol",
      "outputs": [
        {
          "internalType": "string",
          "name": "",
          "type": "string"
        }
      ],
      "stateMutability": "view",
      "type": "function",
      "constant": true
    },
    {
      "inputs": [
        {
          "internalType": "uint256",
          "name": "tokenId",
          "type": "uint256"
        }
      ],
      "name": "tokenURI",
      "outputs": [
        {
          "internalType": "string",
          "name": "",
          "type": "string"
        }
      ],
      "stateMutability": "view",
      "type": "function",
      "constant": true
    },
    {
      "inputs": [
        {
          "internalType": "address",
          "name": "from",
          "type": "address"
        },
        {
          "internalType": "address",
          "name": "to",
          "type": "address"
        },
        {
          "internalType": "uint256",
          "name": "tokenId",
          "type": "uint256"
        }
      ],
      "name": "transferFrom",
      "outputs": [],
      "stateMutability": "nonpayable",
      "type": "function"
    },
    {
      "inputs": [
        {
          "internalType": "string",
          "name": "_TokenURI",
          "type": "string"
        }
      ],
      "name": "createNFTItem",
      "outputs": [
        {
          "internalType": "uint256",
          "name": "",
          "type": "uint256"
        }
      ],
      "stateMutability": "nonpayable",
      "type": "function"
    }
  ],
  "bytecode": "0x60806040523480156200001157600080fd5b50604051620030b0380380620030b083398181016040528101906200003791906200034d565b82828160009080519060200190620000519291906200009b565b5080600190805190602001906200006a9291906200009b565b505050600860009054906101000a900473ffffffffffffffffffffffffffffffffffffffff1690505050506200044c565b828054620000a99062000416565b90600052602060002090601f016020900481019282620000cd576000855562000119565b82601f10620000e857805160ff191683800117855562000119565b8280016001018555821562000119579182015b8281111562000118578251825591602001919060010190620000fb565b5b5090506200012891906200012c565b5090565b5b80821115620001475760008160009055506001016200012d565b5090565b6000604051905090565b600080fd5b600080fd5b600080fd5b600080fd5b6000601f19601f8301169050919050565b7f4e487b7100000000000000000000000000000000000000000000000000000000600052604160045260246000fd5b620001b48262000169565b810181811067ffffffffffffffff82111715620001d657620001d56200017a565b5b80604052505050565b6000620001eb6200014b565b9050620001f98282620001a9565b919050565b600067ffffffffffffffff8211156200021c576200021b6200017a565b5b620002278262000169565b9050602081019050919050565b60005b838110156200025457808201518184015260208101905062000237565b8381111562000264576000848401525b50505050565b6000620002816200027b84620001fe565b620001df565b905082815260208101848484011115620002a0576200029f62000164565b5b620002ad84828562000234565b509392505050565b600082601f830112620002cd57620002cc6200015f565b5b8151620002df8482602086016200026a565b91505092915050565b600073ffffffffffffffffffffffffffffffffffffffff82169050919050565b60006200031582620002e8565b9050919050565b620003278162000308565b81146200033357600080fd5b50565b60008151905062000347816200031c565b92915050565b60008060006060848603121562000369576200036862000155565b5b600084015167ffffffffffffffff8111156200038a57620003896200015a565b5b6200039886828701620002b5565b935050602084015167ffffffffffffffff811115620003bc57620003bb6200015a565b5b620003ca86828701620002b5565b9250506040620003dd8682870162000336565b9150509250925092565b7f4e487b7100000000000000000000000000000000000000000000000000000000600052602260045260246000fd5b600060028204905060018216806200042f57607f821691505b60208210811415620004465762000445620003e7565b5b50919050565b612c54806200045c6000396000f3fe608060405234801561001057600080fd5b50600436106100ea5760003560e01c806370a082311161008c578063a22cb46511610066578063a22cb4651461026f578063b88d4fde1461028b578063c87b56dd146102a7578063e985e9c5146102d7576100ea565b806370a08231146101f157806394a7d24d1461022157806395d89b4114610251576100ea565b8063095ea7b3116100c8578063095ea7b31461016d57806323b872dd1461018957806342842e0e146101a55780636352211e146101c1576100ea565b806301ffc9a7146100ef57806306fdde031461011f578063081812fc1461013d575b600080fd5b610109600480360381019061010491906119c9565b610307565b6040516101169190611a11565b60405180910390f35b6101276103e9565b6040516101349190611ac5565b60405180910390f35b61015760048036038101906101529190611b1d565b61047b565b6040516101649190611b8b565b60405180910390f35b61018760048036038101906101829190611bd2565b610500565b005b6101a3600480360381019061019e9190611c12565b610618565b005b6101bf60048036038101906101ba9190611c12565b610678565b005b6101db60048036038101906101d69190611b1d565b610698565b6040516101e89190611b8b565b60405180910390f35b61020b60048036038101906102069190611c65565b61074a565b6040516102189190611ca1565b60405180910390f35b61023b60048036038101906102369190611df1565b610802565b6040516102489190611ca1565b60405180910390f35b610259610866565b6040516102669190611ac5565b60405180910390f35b61028960048036038101906102849190611e66565b6108f8565b005b6102a560048036038101906102a09190611f47565b61090e565b005b6102c160048036038101906102bc9190611b1d565b610970565b6040516102ce9190611ac5565b60405180910390f35b6102f160048036038101906102ec9190611fca565b610ac2565b6040516102fe9190611a11565b60405180910390f35b60007f80ac58cd000000000000000000000000000000000000000000000000000000007bffffffffffffffffffffffffffffffffffffffffffffffffffffffff1916827bffffffffffffffffffffffffffffffffffffffffffffffffffffffff191614806103d257507f5b5e139f000000000000000000000000000000000000000000000000000000007bffffffffffffffffffffffffffffffffffffffffffffffffffffffff1916827bffffffffffffffffffffffffffffffffffffffffffffffffffffffff1916145b806103e257506103e182610b56565b5b9050919050565b6060600080546103f890612039565b80601f016020809104026020016040519081016040528092919081815260200182805461042490612039565b80156104715780601f1061044657610100808354040283529160200191610471565b820191906000526020600020905b81548152906001019060200180831161045457829003601f168201915b5050505050905090565b600061048682610bc0565b6104c5576040517f08c379a00000000000000000000000000000000000000000000000000000000081526004016104bc906120dd565b60405180910390fd5b6004600083815260200190815260200160002060009054906101000a900473ffffffffffffffffffffffffffffffffffffffff169050919050565b600061050b82610698565b90508073ffffffffffffffffffffffffffffffffffffffff168373ffffffffffffffffffffffffffffffffffffffff16141561057c576040517f08c379a00000000000000000000000000000000000000000000000000000000081526004016105739061216f565b60405180910390fd5b8073ffffffffffffffffffffffffffffffffffffffff1661059b610c2c565b73ffffffffffffffffffffffffffffffffffffffff1614806105ca57506105c9816105c4610c2c565b610ac2565b5b610609576040517f08c379a000000000000000000000000000000000000000000000000000000000815260040161060090612201565b60405180910390fd5b6106138383610c34565b505050565b610629610623610c2c565b82610ced565b610668576040517f08c379a000000000000000000000000000000000000000000000000000000000815260040161065f90612293565b60405180910390fd5b610673838383610dcb565b505050565b6106938383836040518060200160405280600081525061090e565b505050565b6000806002600084815260200190815260200160002060009054906101000a900473ffffffffffffffffffffffffffffffffffffffff169050600073ffffffffffffffffffffffffffffffffffffffff168173ffffffffffffffffffffffffffffffffffffffff161415610741576040517f08c379a000000000000000000000000000000000000000000000000000000000815260040161073890612325565b60405180910390fd5b80915050919050565b60008073ffffffffffffffffffffffffffffffffffffffff168273ffffffffffffffffffffffffffffffffffffffff1614156107bb576040517f08c379a00000000000000000000000000000000000000000000000000000000081526004016107b2906123b7565b60405180910390fd5b600360008373ffffffffffffffffffffffffffffffffffffffff1673ffffffffffffffffffffffffffffffffffffffff168152602001908152602001600020549050919050565b600061080e6007611032565b600061081a6007611048565b90506108263382611056565b6108308184611074565b61085d600860009054906101000a900473ffffffffffffffffffffffffffffffffffffffff1660016108f8565b80915050919050565b60606001805461087590612039565b80601f01602080910402602001604051908101604052809291908181526020018280546108a190612039565b80156108ee5780601f106108c3576101008083540402835291602001916108ee565b820191906000526020600020905b8154815290600101906020018083116108d157829003601f168201915b5050505050905090565b61090a610903610c2c565b83836110e8565b5050565b61091f610919610c2c565b83610ced565b61095e576040517f08c379a000000000000000000000000000000000000000000000000000000000815260040161095590612293565b60405180910390fd5b61096a84848484611255565b50505050565b606061097b82610bc0565b6109ba576040517f08c379a00000000000000000000000000000000000000000000000000000000081526004016109b190612449565b60405180910390fd5b60006006600084815260200190815260200160002080546109da90612039565b80601f0160208091040260200160405190810160405280929190818152602001828054610a0690612039565b8015610a535780601f10610a2857610100808354040283529160200191610a53565b820191906000526020600020905b815481529060010190602001808311610a3657829003601f168201915b505050505090506000610a646112b1565b9050600081511415610a7a578192505050610abd565b600082511115610aaf578082604051602001610a979291906124a5565b60405160208183030381529060405292505050610abd565b610ab8846112c8565b925050505b919050565b6000600560008473ffffffffffffffffffffffffffffffffffffffff1673ffffffffffffffffffffffffffffffffffffffff16815260200190815260200160002060008373ffffffffffffffffffffffffffffffffffffffff1673ffffffffffffffffffffffffffffffffffffffff16815260200190815260200160002060009054906101000a900460ff16905092915050565b60007f01ffc9a7000000000000000000000000000000000000000000000000000000007bffffffffffffffffffffffffffffffffffffffffffffffffffffffff1916827bffffffffffffffffffffffffffffffffffffffffffffffffffffffff1916149050919050565b60008073ffffffffffffffffffffffffffffffffffffffff166002600084815260200190815260200160002060009054906101000a900473ffffffffffffffffffffffffffffffffffffffff1673ffffffffffffffffffffffffffffffffffffffff1614159050919050565b600033905090565b816004600083815260200190815260200160002060006101000a81548173ffffffffffffffffffffffffffffffffffffffff021916908373ffffffffffffffffffffffffffffffffffffffff160217905550808273ffffffffffffffffffffffffffffffffffffffff16610ca783610698565b73ffffffffffffffffffffffffffffffffffffffff167f8c5be1e5ebec7d5bd14f71427d1e84f3dd0314c0f7b2291e5b200ac8c7c3b92560405160405180910390a45050565b6000610cf882610bc0565b610d37576040517f08c379a0000000000000000000000000000000000000000000000000000000008152600401610d2e9061253b565b60405180910390fd5b6000610d4283610698565b90508073ffffffffffffffffffffffffffffffffffffffff168473ffffffffffffffffffffffffffffffffffffffff161480610db157508373ffffffffffffffffffffffffffffffffffffffff16610d998461047b565b73ffffffffffffffffffffffffffffffffffffffff16145b80610dc25750610dc18185610ac2565b5b91505092915050565b8273ffffffffffffffffffffffffffffffffffffffff16610deb82610698565b73ffffffffffffffffffffffffffffffffffffffff1614610e41576040517f08c379a0000000000000000000000000000000000000000000000000000000008152600401610e38906125cd565b60405180910390fd5b600073ffffffffffffffffffffffffffffffffffffffff168273ffffffffffffffffffffffffffffffffffffffff161415610eb1576040517f08c379a0000000000000000000000000000000000000000000000000000000008152600401610ea89061265f565b60405180910390fd5b610ebc83838361136f565b610ec7600082610c34565b6001600360008573ffffffffffffffffffffffffffffffffffffffff1673ffffffffffffffffffffffffffffffffffffffff1681526020019081526020016000206000828254610f1791906126ae565b925050819055506001600360008473ffffffffffffffffffffffffffffffffffffffff1673ffffffffffffffffffffffffffffffffffffffff1681526020019081526020016000206000828254610f6e91906126e2565b92505081905550816002600083815260200190815260200160002060006101000a81548173ffffffffffffffffffffffffffffffffffffffff021916908373ffffffffffffffffffffffffffffffffffffffff160217905550808273ffffffffffffffffffffffffffffffffffffffff168473ffffffffffffffffffffffffffffffffffffffff167fddf252ad1be2c89b69c2b068fc378daa952ba7f163c4a11628f55a4df523b3ef60405160405180910390a461102d838383611374565b505050565b6001816000016000828254019250508190555050565b600081600001549050919050565b611070828260405180602001604052806000815250611379565b5050565b61107d82610bc0565b6110bc576040517f08c379a00000000000000000000000000000000000000000000000000000000081526004016110b3906127aa565b60405180910390fd5b806006600084815260200190815260200160002090805190602001906110e39291906118ba565b505050565b8173ffffffffffffffffffffffffffffffffffffffff168373ffffffffffffffffffffffffffffffffffffffff161415611157576040517f08c379a000000000000000000000000000000000000000000000000000000000815260040161114e90612816565b60405180910390fd5b80600560008573ffffffffffffffffffffffffffffffffffffffff1673ffffffffffffffffffffffffffffffffffffffff16815260200190815260200160002060008473ffffffffffffffffffffffffffffffffffffffff1673ffffffffffffffffffffffffffffffffffffffff16815260200190815260200160002060006101000a81548160ff0219169083151502179055508173ffffffffffffffffffffffffffffffffffffffff168373ffffffffffffffffffffffffffffffffffffffff167f17307eab39ab6107e8899845ad3d59bd9653f200f220920489ca2b5937696c31836040516112489190611a11565b60405180910390a3505050565b611260848484610dcb565b61126c848484846113d4565b6112ab576040517f08c379a00000000000000000000000000000000000000000000000000000000081526004016112a2906128a8565b60405180910390fd5b50505050565b606060405180602001604052806000815250905090565b60606112d382610bc0565b611312576040517f08c379a00000000000000000000000000000000000000000000000000000000081526004016113099061293a565b60405180910390fd5b600061131c6112b1565b9050600081511161133c5760405180602001604052806000815250611367565b806113468461155c565b6040516020016113579291906124a5565b6040516020818303038152906040525b915050919050565b505050565b505050565b61138383836116bd565b61139060008484846113d4565b6113cf576040517f08c379a00000000000000000000000000000000000000000000000000000000081526004016113c6906128a8565b60405180910390fd5b505050565b60006113f58473ffffffffffffffffffffffffffffffffffffffff16611897565b1561154f578373ffffffffffffffffffffffffffffffffffffffff1663150b7a0261141e610c2c565b8786866040518563ffffffff1660e01b815260040161144094939291906129af565b6020604051808303816000875af192505050801561147c57506040513d601f19601f820116820180604052508101906114799190612a10565b60015b6114ff573d80600081146114ac576040519150601f19603f3d011682016040523d82523d6000602084013e6114b1565b606091505b506000815114156114f7576040517f08c379a00000000000000000000000000000000000000000000000000000000081526004016114ee906128a8565b60405180910390fd5b805181602001fd5b63150b7a0260e01b7bffffffffffffffffffffffffffffffffffffffffffffffffffffffff1916817bffffffffffffffffffffffffffffffffffffffffffffffffffffffff191614915050611554565b600190505b949350505050565b606060008214156115a4576040518060400160405280600181526020017f300000000000000000000000000000000000000000000000000000000000000081525090506116b8565b600082905060005b600082146115d65780806115bf90612a3d565b915050600a826115cf9190612ab5565b91506115ac565b60008167ffffffffffffffff8111156115f2576115f1611cc6565b5b6040519080825280601f01601f1916602001820160405280156116245781602001600182028036833780820191505090505b5090505b600085146116b15760018261163d91906126ae565b9150600a8561164c9190612ae6565b603061165891906126e2565b60f81b81838151811061166e5761166d612b17565b5b60200101907effffffffffffffffffffffffffffffffffffffffffffffffffffffffffffff1916908160001a905350600a856116aa9190612ab5565b9450611628565b8093505050505b919050565b600073ffffffffffffffffffffffffffffffffffffffff168273ffffffffffffffffffffffffffffffffffffffff16141561172d576040517f08c379a000000000000000000000000000000000000000000000000000000000815260040161172490612b92565b60405180910390fd5b61173681610bc0565b15611776576040517f08c379a000000000000000000000000000000000000000000000000000000000815260040161176d90612bfe565b60405180910390fd5b6117826000838361136f565b6001600360008473ffffffffffffffffffffffffffffffffffffffff1673ffffffffffffffffffffffffffffffffffffffff16815260200190815260200160002060008282546117d291906126e2565b92505081905550816002600083815260200190815260200160002060006101000a81548173ffffffffffffffffffffffffffffffffffffffff021916908373ffffffffffffffffffffffffffffffffffffffff160217905550808273ffffffffffffffffffffffffffffffffffffffff16600073ffffffffffffffffffffffffffffffffffffffff167fddf252ad1be2c89b69c2b068fc378daa952ba7f163c4a11628f55a4df523b3ef60405160405180910390a461189360008383611374565b5050565b6000808273ffffffffffffffffffffffffffffffffffffffff163b119050919050565b8280546118c690612039565b90600052602060002090601f0160209004810192826118e8576000855561192f565b82601f1061190157805160ff191683800117855561192f565b8280016001018555821561192f579182015b8281111561192e578251825591602001919060010190611913565b5b50905061193c9190611940565b5090565b5b80821115611959576000816000905550600101611941565b5090565b6000604051905090565b600080fd5b600080fd5b60007fffffffff0000000000000000000000000000000000000000000000000000000082169050919050565b6119a681611971565b81146119b157600080fd5b50565b6000813590506119c38161199d565b92915050565b6000602082840312156119df576119de611967565b5b60006119ed848285016119b4565b91505092915050565b60008115159050919050565b611a0b816119f6565b82525050565b6000602082019050611a266000830184611a02565b92915050565b600081519050919050565b600082825260208201905092915050565b60005b83811015611a66578082015181840152602081019050611a4b565b83811115611a75576000848401525b50505050565b6000601f19601f8301169050919050565b6000611a9782611a2c565b611aa18185611a37565b9350611ab1818560208601611a48565b611aba81611a7b565b840191505092915050565b60006020820190508181036000830152611adf8184611a8c565b905092915050565b6000819050919050565b611afa81611ae7565b8114611b0557600080fd5b50565b600081359050611b1781611af1565b92915050565b600060208284031215611b3357611b32611967565b5b6000611b4184828501611b08565b91505092915050565b600073ffffffffffffffffffffffffffffffffffffffff82169050919050565b6000611b7582611b4a565b9050919050565b611b8581611b6a565b82525050565b6000602082019050611ba06000830184611b7c565b92915050565b611baf81611b6a565b8114611bba57600080fd5b50565b600081359050611bcc81611ba6565b92915050565b60008060408385031215611be957611be8611967565b5b6000611bf785828601611bbd565b9250506020611c0885828601611b08565b9150509250929050565b600080600060608486031215611c2b57611c2a611967565b5b6000611c3986828701611bbd565b9350506020611c4a86828701611bbd565b9250506040611c5b86828701611b08565b9150509250925092565b600060208284031215611c7b57611c7a611967565b5b6000611c8984828501611bbd565b91505092915050565b611c9b81611ae7565b82525050565b6000602082019050611cb66000830184611c92565b92915050565b600080fd5b600080fd5b7f4e487b7100000000000000000000000000000000000000000000000000000000600052604160045260246000fd5b611cfe82611a7b565b810181811067ffffffffffffffff82111715611d1d57611d1c611cc6565b5b80604052505050565b6000611d3061195d565b9050611d3c8282611cf5565b919050565b600067ffffffffffffffff821115611d5c57611d5b611cc6565b5b611d6582611a7b565b9050602081019050919050565b82818337600083830152505050565b6000611d94611d8f84611d41565b611d26565b905082815260208101848484011115611db057611daf611cc1565b5b611dbb848285611d72565b509392505050565b600082601f830112611dd857611dd7611cbc565b5b8135611de8848260208601611d81565b91505092915050565b600060208284031215611e0757611e06611967565b5b600082013567ffffffffffffffff811115611e2557611e2461196c565b5b611e3184828501611dc3565b91505092915050565b611e43816119f6565b8114611e4e57600080fd5b50565b600081359050611e6081611e3a565b92915050565b60008060408385031215611e7d57611e7c611967565b5b6000611e8b85828601611bbd565b9250506020611e9c85828601611e51565b9150509250929050565b600067ffffffffffffffff821115611ec157611ec0611cc6565b5b611eca82611a7b565b9050602081019050919050565b6000611eea611ee584611ea6565b611d26565b905082815260208101848484011115611f0657611f05611cc1565b5b611f11848285611d72565b509392505050565b600082601f830112611f2e57611f2d611cbc565b5b8135611f3e848260208601611ed7565b91505092915050565b60008060008060808587031215611f6157611f60611967565b5b6000611f6f87828801611bbd565b9450506020611f8087828801611bbd565b9350506040611f9187828801611b08565b925050606085013567ffffffffffffffff811115611fb257611fb161196c565b5b611fbe87828801611f19565b91505092959194509250565b60008060408385031215611fe157611fe0611967565b5b6000611fef85828601611bbd565b925050602061200085828601611bbd565b9150509250929050565b7f4e487b7100000000000000000000000000000000000000000000000000000000600052602260045260246000fd5b6000600282049050600182168061205157607f821691505b602082108114156120655761206461200a565b5b50919050565b7f4552433732313a20617070726f76656420717565727920666f72206e6f6e657860008201527f697374656e7420746f6b656e0000000000000000000000000000000000000000602082015250565b60006120c7602c83611a37565b91506120d28261206b565b604082019050919050565b600060208201905081810360008301526120f6816120ba565b9050919050565b7f4552433732313a20617070726f76616c20746f2063757272656e74206f776e6560008201527f7200000000000000000000000000000000000000000000000000000000000000602082015250565b6000612159602183611a37565b9150612164826120fd565b604082019050919050565b600060208201905081810360008301526121888161214c565b9050919050565b7f4552433732313a20617070726f76652063616c6c6572206973206e6f74206f7760008201527f6e6572206e6f7220617070726f76656420666f7220616c6c0000000000000000602082015250565b60006121eb603883611a37565b91506121f68261218f565b604082019050919050565b6000602082019050818103600083015261221a816121de565b9050919050565b7f4552433732313a207472616e736665722063616c6c6572206973206e6f74206f60008201527f776e6572206e6f7220617070726f766564000000000000000000000000000000602082015250565b600061227d603183611a37565b915061228882612221565b604082019050919050565b600060208201905081810360008301526122ac81612270565b9050919050565b7f4552433732313a206f776e657220717565727920666f72206e6f6e657869737460008201527f656e7420746f6b656e0000000000000000000000000000000000000000000000602082015250565b600061230f602983611a37565b915061231a826122b3565b604082019050919050565b6000602082019050818103600083015261233e81612302565b9050919050565b7f4552433732313a2062616c616e636520717565727920666f7220746865207a6560008201527f726f206164647265737300000000000000000000000000000000000000000000602082015250565b60006123a1602a83611a37565b91506123ac82612345565b604082019050919050565b600060208201905081810360008301526123d081612394565b9050919050565b7f45524337323155524953746f726167653a2055524920717565727920666f722060008201527f6e6f6e6578697374656e7420746f6b656e000000000000000000000000000000602082015250565b6000612433603183611a37565b915061243e826123d7565b604082019050919050565b6000602082019050818103600083015261246281612426565b9050919050565b600081905092915050565b600061247f82611a2c565b6124898185612469565b9350612499818560208601611a48565b80840191505092915050565b60006124b18285612474565b91506124bd8284612474565b91508190509392505050565b7f4552433732313a206f70657261746f7220717565727920666f72206e6f6e657860008201527f697374656e7420746f6b656e0000000000000000000000000000000000000000602082015250565b6000612525602c83611a37565b9150612530826124c9565b604082019050919050565b6000602082019050818103600083015261255481612518565b9050919050565b7f4552433732313a207472616e736665722066726f6d20696e636f72726563742060008201527f6f776e6572000000000000000000000000000000000000000000000000000000602082015250565b60006125b7602583611a37565b91506125c28261255b565b604082019050919050565b600060208201905081810360008301526125e6816125aa565b9050919050565b7f4552433732313a207472616e7366657220746f20746865207a65726f2061646460008201527f7265737300000000000000000000000000000000000000000000000000000000602082015250565b6000612649602483611a37565b9150612654826125ed565b604082019050919050565b600060208201905081810360008301526126788161263c565b9050919050565b7f4e487b7100000000000000000000000000000000000000000000000000000000600052601160045260246000fd5b60006126b982611ae7565b91506126c483611ae7565b9250828210156126d7576126d661267f565b5b828203905092915050565b60006126ed82611ae7565b91506126f883611ae7565b9250827fffffffffffffffffffffffffffffffffffffffffffffffffffffffffffffffff0382111561272d5761272c61267f565b5b828201905092915050565b7f45524337323155524953746f726167653a2055524920736574206f66206e6f6e60008201527f6578697374656e7420746f6b656e000000000000000000000000000000000000602082015250565b6000612794602e83611a37565b915061279f82612738565b604082019050919050565b600060208201905081810360008301526127c381612787565b9050919050565b7f4552433732313a20617070726f766520746f2063616c6c657200000000000000600082015250565b6000612800601983611a37565b915061280b826127ca565b602082019050919050565b6000602082019050818103600083015261282f816127f3565b9050919050565b7f4552433732313a207472616e7366657220746f206e6f6e20455243373231526560008201527f63656976657220696d706c656d656e7465720000000000000000000000000000602082015250565b6000612892603283611a37565b915061289d82612836565b604082019050919050565b600060208201905081810360008301526128c181612885565b9050919050565b7f4552433732314d657461646174613a2055524920717565727920666f72206e6f60008201527f6e6578697374656e7420746f6b656e0000000000000000000000000000000000602082015250565b6000612924602f83611a37565b915061292f826128c8565b604082019050919050565b6000602082019050818103600083015261295381612917565b9050919050565b600081519050919050565b600082825260208201905092915050565b60006129818261295a565b61298b8185612965565b935061299b818560208601611a48565b6129a481611a7b565b840191505092915050565b60006080820190506129c46000830187611b7c565b6129d16020830186611b7c565b6129de6040830185611c92565b81810360608301526129f08184612976565b905095945050505050565b600081519050612a0a8161199d565b92915050565b600060208284031215612a2657612a25611967565b5b6000612a34848285016129fb565b91505092915050565b6000612a4882611ae7565b91507fffffffffffffffffffffffffffffffffffffffffffffffffffffffffffffffff821415612a7b57612a7a61267f565b5b600182019050919050565b7f4e487b7100000000000000000000000000000000000000000000000000000000600052601260045260246000fd5b6000612ac082611ae7565b9150612acb83611ae7565b925082612adb57612ada612a86565b5b828204905092915050565b6000612af182611ae7565b9150612afc83611ae7565b925082612b0c57612b0b612a86565b5b828206905092915050565b7f4e487b7100000000000000000000000000000000000000000000000000000000600052603260045260246000fd5b7f4552433732313a206d696e7420746f20746865207a65726f2061646472657373600082015250565b6000612b7c602083611a37565b9150612b8782612b46565b602082019050919050565b60006020820190508181036000830152612bab81612b6f565b9050919050565b7f4552433732313a20746f6b656e20616c7265616479206d696e74656400000000600082015250565b6000612be8601c83611a37565b9150612bf382612bb2565b602082019050919050565b60006020820190508181036000830152612c1781612bdb565b905091905056fea2646970667358221220ce1957e7d69eeb651c89649b46aa597f492112ab41ad4e787589b4e36d2259ac64736f6c634300080a0033",
  "immutableReferences": {},
  "source": "// SPDX-License-Identifier: MIT\npragma solidity >=0.4.22 <0.9.0;\n\nimport \"@openzeppelin/contracts/token/ERC721/ERC721.sol\";\nimport \"@openzeppelin/contracts/token/ERC721/extensions/ERC721URIStorage.sol\";\nimport \"@openzeppelin/contracts/utils/Counters.sol\";\n\n\ncontract NFT is ERC721URIStorage {\n\n    using Counters for Counters.Counter;\n    Counters.Counter private tokenID;\n\n    address marketAddress;\n\n    constructor(string memory name_, string memory symbol_, address _marketAddress) ERC721(name_, symbol_) {\n        _marketAddress = marketAddress;\n    }\n\n    function createNFTItem(string memory _TokenURI) public returns(uint256){\n        tokenID.increment();\n        uint256 newTokenID = tokenID.current();\n\n        _safeMint(msg.sender, newTokenID);\n        _setTokenURI(newTokenID, _TokenURI);\n        setApprovalForAll(marketAddress, true);\n\n        return newTokenID;\n    }\n\n}\n",
  "sourcePath": "C:\\Users\\JS\\Desktop\\NFTMarketPlace\\contracts\\NFT.sol",
  "compiler": {
    "name": "solc",
    "version": "0.8.10+commit.fc410830.Emscripten.clang"
  },
  "schemaVersion": "3.4.4",
  "updatedAt": "2022-03-04T11:33:19.494Z",
  "networkType": "ethereum",
  "devdoc": {
    "kind": "dev",
    "methods": {
      "approve(address,uint256)": {
        "details": "See {IERC721-approve}."
      },
      "balanceOf(address)": {
        "details": "See {IERC721-balanceOf}."
      },
      "getApproved(uint256)": {
        "details": "See {IERC721-getApproved}."
      },
      "isApprovedForAll(address,address)": {
        "details": "See {IERC721-isApprovedForAll}."
      },
      "name()": {
        "details": "See {IERC721Metadata-name}."
      },
      "ownerOf(uint256)": {
        "details": "See {IERC721-ownerOf}."
      },
      "safeTransferFrom(address,address,uint256)": {
        "details": "See {IERC721-safeTransferFrom}."
      },
      "safeTransferFrom(address,address,uint256,bytes)": {
        "details": "See {IERC721-safeTransferFrom}."
      },
      "setApprovalForAll(address,bool)": {
        "details": "See {IERC721-setApprovalForAll}."
      },
      "supportsInterface(bytes4)": {
        "details": "See {IERC165-supportsInterface}."
      },
      "symbol()": {
        "details": "See {IERC721Metadata-symbol}."
      },
      "tokenURI(uint256)": {
        "details": "See {IERC721Metadata-tokenURI}."
      },
      "transferFrom(address,address,uint256)": {
        "details": "See {IERC721-transferFrom}."
      }
    },
    "version": 1
  },
  "userdoc": {
    "kind": "user",
    "methods": {},
    "version": 1
  }
}