{
  "contractName": "NFTMarketplace",
  "abi": [
    {
      "inputs": [],
      "stateMutability": "nonpayable",
      "type": "constructor"
    },
    {
      "inputs": [
        {
          "internalType": "uint256",
          "name": "",
          "type": "uint256"
        }
      ],
      "name": "idToNFT",
      "outputs": [
        {
          "internalType": "uint256",
          "name": "itemID",
          "type": "uint256"
        },
        {
          "internalType": "uint256",
          "name": "tokenNFTID",
          "type": "uint256"
        },
        {
          "internalType": "uint256",
          "name": "price",
          "type": "uint256"
        },
        {
          "internalType": "address",
          "name": "NFTContract",
          "type": "address"
        },
        {
          "internalType": "address payable",
          "name": "owner",
          "type": "address"
        },
        {
          "internalType": "address payable",
          "name": "seller",
          "type": "address"
        },
        {
          "internalType": "bool",
          "name": "sold",
          "type": "bool"
        }
      ],
      "stateMutability": "view",
      "type": "function",
      "constant": true
    },
    {
      "inputs": [
        {
          "internalType": "uint256",
          "name": "",
          "type": "uint256"
        }
      ],
      "name": "isListed",
      "outputs": [
        {
          "internalType": "bool",
          "name": "",
          "type": "bool"
        }
      ],
      "stateMutability": "view",
      "type": "function",
      "constant": true
    },
    {
      "inputs": [],
      "name": "listingPrice",
      "outputs": [
        {
          "internalType": "uint256",
          "name": "",
          "type": "uint256"
        }
      ],
      "stateMutability": "view",
      "type": "function",
      "constant": true
    },
    {
      "inputs": [
        {
          "internalType": "uint256",
          "name": "_tokenId",
          "type": "uint256"
        },
        {
          "internalType": "uint256",
          "name": "_price",
          "type": "uint256"
        },
        {
          "internalType": "address",
          "name": "_NFTContract",
          "type": "address"
        }
      ],
      "name": "createItem",
      "outputs": [
        {
          "internalType": "uint256",
          "name": "",
          "type": "uint256"
        }
      ],
      "stateMutability": "payable",
      "type": "function",
      "payable": true
    },
    {
      "inputs": [
        {
          "internalType": "uint256",
          "name": "_itemID",
          "type": "uint256"
        },
        {
          "internalType": "address",
          "name": "_NFTContract",
          "type": "address"
        }
      ],
      "name": "BuyItem",
      "outputs": [
        {
          "internalType": "uint256",
          "name": "",
          "type": "uint256"
        }
      ],
      "stateMutability": "payable",
      "type": "function",
      "payable": true
    },
    {
      "inputs": [],
      "name": "getMarketItems",
      "outputs": [
        {
          "components": [
            {
              "internalType": "uint256",
              "name": "itemID",
              "type": "uint256"
            },
            {
              "internalType": "uint256",
              "name": "tokenNFTID",
              "type": "uint256"
            },
            {
              "internalType": "uint256",
              "name": "price",
              "type": "uint256"
            },
            {
              "internalType": "address",
              "name": "NFTContract",
              "type": "address"
            },
            {
              "internalType": "address payable",
              "name": "owner",
              "type": "address"
            },
            {
              "internalType": "address payable",
              "name": "seller",
              "type": "address"
            },
            {
              "internalType": "bool",
              "name": "sold",
              "type": "bool"
            }
          ],
          "internalType": "struct NFTMarketplace.NFTItem[]",
          "name": "",
          "type": "tuple[]"
        }
      ],
      "stateMutability": "view",
      "type": "function",
      "constant": true
    },
    {
      "inputs": [],
      "name": "getMyNFTItems",
      "outputs": [
        {
          "components": [
            {
              "internalType": "uint256",
              "name": "itemID",
              "type": "uint256"
            },
            {
              "internalType": "uint256",
              "name": "tokenNFTID",
              "type": "uint256"
            },
            {
              "internalType": "uint256",
              "name": "price",
              "type": "uint256"
            },
            {
              "internalType": "address",
              "name": "NFTContract",
              "type": "address"
            },
            {
              "internalType": "address payable",
              "name": "owner",
              "type": "address"
            },
            {
              "internalType": "address payable",
              "name": "seller",
              "type": "address"
            },
            {
              "internalType": "bool",
              "name": "sold",
              "type": "bool"
            }
          ],
          "internalType": "struct NFTMarketplace.NFTItem[]",
          "name": "",
          "type": "tuple[]"
        }
      ],
      "stateMutability": "view",
      "type": "function",
      "constant": true
    },
    {
      "inputs": [],
      "name": "getMyNFTForSale",
      "outputs": [
        {
          "components": [
            {
              "internalType": "uint256",
              "name": "itemID",
              "type": "uint256"
            },
            {
              "internalType": "uint256",
              "name": "tokenNFTID",
              "type": "uint256"
            },
            {
              "internalType": "uint256",
              "name": "price",
              "type": "uint256"
            },
            {
              "internalType": "address",
              "name": "NFTContract",
              "type": "address"
            },
            {
              "internalType": "address payable",
              "name": "owner",
              "type": "address"
            },
            {
              "internalType": "address payable",
              "name": "seller",
              "type": "address"
            },
            {
              "internalType": "bool",
              "name": "sold",
              "type": "bool"
            }
          ],
          "internalType": "struct NFTMarketplace.NFTItem[]",
          "name": "",
          "type": "tuple[]"
        }
      ],
      "stateMutability": "view",
      "type": "function",
      "constant": true
    }
  ],
  "bytecode": "0x608060405267016345785d8a000060045534801561001c57600080fd5b50600160008190555033600360006101000a81548173ffffffffffffffffffffffffffffffffffffffff021916908373ffffffffffffffffffffffffffffffffffffffff16021790555061183a806100756000396000f3fe60806040526004361061007b5760003560e01c806387fa1f8e1161004e57806387fa1f8e14610149578063c78f19f914610179578063d55b3b33146101a4578063fcce4883146101cf5761007b565b806329aa3a421461008057806333aa49cd146100ab5780633b389fd4146100ee57806365ebbc941461011e575b600080fd5b34801561008c57600080fd5b5061009561020c565b6040516100a291906113d0565b60405180910390f35b3480156100b757600080fd5b506100d260048036038101906100cd9190611423565b6104e3565b6040516100e5979695949392919061148c565b60405180910390f35b61010860048036038101906101039190611527565b610592565b6040516101159190611567565b60405180910390f35b34801561012a57600080fd5b5061013361081c565b60405161014091906113d0565b60405180910390f35b610163600480360381019061015e9190611582565b610b7f565b6040516101709190611567565b60405180910390f35b34801561018557600080fd5b5061018e610dcf565b60405161019b9190611567565b60405180910390f35b3480156101b057600080fd5b506101b9610dd5565b6040516101c691906113d0565b60405180910390f35b3480156101db57600080fd5b506101f660048036038101906101f19190611423565b611138565b60405161020391906115d5565b60405180910390f35b6060600061021a6001611158565b905060006102286002611158565b82610233919061161f565b90506000808267ffffffffffffffff81111561025257610251611653565b5b60405190808252806020026020018201604052801561028b57816020015b61027861117c565b8152602001906001900390816102705790505b50905060005b848110156104d857600073ffffffffffffffffffffffffffffffffffffffff16600560006001846102c29190611682565b815260200190815260200160002060040160009054906101000a900473ffffffffffffffffffffffffffffffffffffffff1673ffffffffffffffffffffffffffffffffffffffff1614156104c5576000600560006001846103239190611682565b81526020019081526020016000206000015490506000600560008381526020019081526020016000209050806040518060e00160405290816000820154815260200160018201548152602001600282015481526020016003820160009054906101000a900473ffffffffffffffffffffffffffffffffffffffff1673ffffffffffffffffffffffffffffffffffffffff1673ffffffffffffffffffffffffffffffffffffffff1681526020016004820160009054906101000a900473ffffffffffffffffffffffffffffffffffffffff1673ffffffffffffffffffffffffffffffffffffffff1673ffffffffffffffffffffffffffffffffffffffff1681526020016005820160009054906101000a900473ffffffffffffffffffffffffffffffffffffffff1673ffffffffffffffffffffffffffffffffffffffff1673ffffffffffffffffffffffffffffffffffffffff1681526020016005820160149054906101000a900460ff1615151515815250508486815181106104a8576104a76116d8565b5b60200260200101819052506001856104c09190611682565b945050505b80806104d090611707565b915050610291565b508094505050505090565b60056020528060005260406000206000915090508060000154908060010154908060020154908060030160009054906101000a900473ffffffffffffffffffffffffffffffffffffffff16908060040160009054906101000a900473ffffffffffffffffffffffffffffffffffffffff16908060050160009054906101000a900473ffffffffffffffffffffffffffffffffffffffff16908060050160149054906101000a900460ff16905087565b6000600260005414156105da576040517f08c379a00000000000000000000000000000000000000000000000000000000081526004016105d1906117ad565b60405180910390fd5b600260008190555060006005600085815260200190815260200160002060020154905060006005600086815260200190815260200160002060010154905081341461062457600080fd5b6005600086815260200190815260200160002060050160009054906101000a900473ffffffffffffffffffffffffffffffffffffffff1673ffffffffffffffffffffffffffffffffffffffff166108fc349081150290604051600060405180830381858888f193505050501580156106a0573d6000803e3d6000fd5b508373ffffffffffffffffffffffffffffffffffffffff166323b872dd3033846040518463ffffffff1660e01b81526004016106de939291906117cd565b600060405180830381600087803b1580156106f857600080fd5b505af115801561070c573d6000803e3d6000fd5b50505050336005600087815260200190815260200160002060040160006101000a81548173ffffffffffffffffffffffffffffffffffffffff021916908373ffffffffffffffffffffffffffffffffffffffff16021790555060016005600087815260200190815260200160002060050160146101000a81548160ff021916908315150217905550600360009054906101000a900473ffffffffffffffffffffffffffffffffffffffff1673ffffffffffffffffffffffffffffffffffffffff166108fc6004549081150290604051600060405180830381858888f193505050501580156107fe573d6000803e3d6000fd5b506108096002611166565b8092505050600160008190555092915050565b6060600061082a6001611158565b90506000805b828110156108d1573373ffffffffffffffffffffffffffffffffffffffff16600560006001846108609190611682565b815260200190815260200160002060040160009054906101000a900473ffffffffffffffffffffffffffffffffffffffff1673ffffffffffffffffffffffffffffffffffffffff1614156108be576001826108bb9190611682565b91505b80806108c990611707565b915050610830565b506000808267ffffffffffffffff8111156108ef576108ee611653565b5b60405190808252806020026020018201604052801561092857816020015b61091561117c565b81526020019060019003908161090d5790505b50905060005b84811015610b74573373ffffffffffffffffffffffffffffffffffffffff166005600060018461095e9190611682565b815260200190815260200160002060040160009054906101000a900473ffffffffffffffffffffffffffffffffffffffff1673ffffffffffffffffffffffffffffffffffffffff161415610b61576000600560006001846109bf9190611682565b81526020019081526020016000206000015490506000600560008381526020019081526020016000209050806040518060e00160405290816000820154815260200160018201548152602001600282015481526020016003820160009054906101000a900473ffffffffffffffffffffffffffffffffffffffff1673ffffffffffffffffffffffffffffffffffffffff1673ffffffffffffffffffffffffffffffffffffffff1681526020016004820160009054906101000a900473ffffffffffffffffffffffffffffffffffffffff1673ffffffffffffffffffffffffffffffffffffffff1673ffffffffffffffffffffffffffffffffffffffff1681526020016005820160009054906101000a900473ffffffffffffffffffffffffffffffffffffffff1673ffffffffffffffffffffffffffffffffffffffff1673ffffffffffffffffffffffffffffffffffffffff1681526020016005820160149054906101000a900460ff161515151581525050848681518110610b4457610b436116d8565b5b6020026020010181905250600185610b5c9190611682565b945050505b8080610b6c90611707565b91505061092e565b508094505050505090565b600060026000541415610bc7576040517f08c379a0000000000000000000000000000000000000000000000000000000008152600401610bbe906117ad565b60405180910390fd5b60026000819055506004543414610bdd57600080fd5b600015156006600086815260200190815260200160002060009054906101000a900460ff16151514610c0e57600080fd5b60008311610c1b57600080fd5b610c256001611166565b6000610c316001611158565b90506000600560008381526020019081526020016000209050818160000181905550858160010181905550838160030160006101000a81548173ffffffffffffffffffffffffffffffffffffffff021916908373ffffffffffffffffffffffffffffffffffffffff16021790555060008160040160006101000a81548173ffffffffffffffffffffffffffffffffffffffff021916908373ffffffffffffffffffffffffffffffffffffffff160217905550338160050160006101000a81548173ffffffffffffffffffffffffffffffffffffffff021916908373ffffffffffffffffffffffffffffffffffffffff16021790555084816002018190555060008160050160146101000a81548160ff0219169083151502179055508373ffffffffffffffffffffffffffffffffffffffff166323b872dd3330896040518463ffffffff1660e01b8152600401610d89939291906117cd565b600060405180830381600087803b158015610da357600080fd5b505af1158015610db7573d6000803e3d6000fd5b50505050859250505060016000819055509392505050565b60045481565b60606000610de36001611158565b90506000805b82811015610e8a573373ffffffffffffffffffffffffffffffffffffffff1660056000600184610e199190611682565b815260200190815260200160002060050160009054906101000a900473ffffffffffffffffffffffffffffffffffffffff1673ffffffffffffffffffffffffffffffffffffffff161415610e7757600182610e749190611682565b91505b8080610e8290611707565b915050610de9565b506000808267ffffffffffffffff811115610ea857610ea7611653565b5b604051908082528060200260200182016040528015610ee157816020015b610ece61117c565b815260200190600190039081610ec65790505b50905060005b8481101561112d573373ffffffffffffffffffffffffffffffffffffffff1660056000600184610f179190611682565b815260200190815260200160002060050160009054906101000a900473ffffffffffffffffffffffffffffffffffffffff1673ffffffffffffffffffffffffffffffffffffffff16141561111a57600060056000600184610f789190611682565b81526020019081526020016000206000015490506000600560008381526020019081526020016000209050806040518060e00160405290816000820154815260200160018201548152602001600282015481526020016003820160009054906101000a900473ffffffffffffffffffffffffffffffffffffffff1673ffffffffffffffffffffffffffffffffffffffff1673ffffffffffffffffffffffffffffffffffffffff1681526020016004820160009054906101000a900473ffffffffffffffffffffffffffffffffffffffff1673ffffffffffffffffffffffffffffffffffffffff1673ffffffffffffffffffffffffffffffffffffffff1681526020016005820160009054906101000a900473ffffffffffffffffffffffffffffffffffffffff1673ffffffffffffffffffffffffffffffffffffffff1673ffffffffffffffffffffffffffffffffffffffff1681526020016005820160149054906101000a900460ff1615151515815250508486815181106110fd576110fc6116d8565b5b60200260200101819052506001856111159190611682565b945050505b808061112590611707565b915050610ee7565b508094505050505090565b60066020528060005260406000206000915054906101000a900460ff1681565b600081600001549050919050565b6001816000016000828254019250508190555050565b6040518060e00160405280600081526020016000815260200160008152602001600073ffffffffffffffffffffffffffffffffffffffff168152602001600073ffffffffffffffffffffffffffffffffffffffff168152602001600073ffffffffffffffffffffffffffffffffffffffff1681526020016000151581525090565b600081519050919050565b600082825260208201905092915050565b6000819050602082019050919050565b6000819050919050565b61123c81611229565b82525050565b600073ffffffffffffffffffffffffffffffffffffffff82169050919050565b600061126d82611242565b9050919050565b61127d81611262565b82525050565b600061128e82611242565b9050919050565b61129e81611283565b82525050565b60008115159050919050565b6112b9816112a4565b82525050565b60e0820160008201516112d56000850182611233565b5060208201516112e86020850182611233565b5060408201516112fb6040850182611233565b50606082015161130e6060850182611274565b5060808201516113216080850182611295565b5060a082015161133460a0850182611295565b5060c082015161134760c08501826112b0565b50505050565b600061135983836112bf565b60e08301905092915050565b6000602082019050919050565b600061137d826111fd565b6113878185611208565b935061139283611219565b8060005b838110156113c35781516113aa888261134d565b97506113b583611365565b925050600181019050611396565b5085935050505092915050565b600060208201905081810360008301526113ea8184611372565b905092915050565b600080fd5b61140081611229565b811461140b57600080fd5b50565b60008135905061141d816113f7565b92915050565b600060208284031215611439576114386113f2565b5b60006114478482850161140e565b91505092915050565b61145981611229565b82525050565b61146881611262565b82525050565b61147781611283565b82525050565b611486816112a4565b82525050565b600060e0820190506114a1600083018a611450565b6114ae6020830189611450565b6114bb6040830188611450565b6114c8606083018761145f565b6114d5608083018661146e565b6114e260a083018561146e565b6114ef60c083018461147d565b98975050505050505050565b61150481611262565b811461150f57600080fd5b50565b600081359050611521816114fb565b92915050565b6000806040838503121561153e5761153d6113f2565b5b600061154c8582860161140e565b925050602061155d85828601611512565b9150509250929050565b600060208201905061157c6000830184611450565b92915050565b60008060006060848603121561159b5761159a6113f2565b5b60006115a98682870161140e565b93505060206115ba8682870161140e565b92505060406115cb86828701611512565b9150509250925092565b60006020820190506115ea600083018461147d565b92915050565b7f4e487b7100000000000000000000000000000000000000000000000000000000600052601160045260246000fd5b600061162a82611229565b915061163583611229565b925082821015611648576116476115f0565b5b828203905092915050565b7f4e487b7100000000000000000000000000000000000000000000000000000000600052604160045260246000fd5b600061168d82611229565b915061169883611229565b9250827fffffffffffffffffffffffffffffffffffffffffffffffffffffffffffffffff038211156116cd576116cc6115f0565b5b828201905092915050565b7f4e487b7100000000000000000000000000000000000000000000000000000000600052603260045260246000fd5b600061171282611229565b91507fffffffffffffffffffffffffffffffffffffffffffffffffffffffffffffffff821415611745576117446115f0565b5b600182019050919050565b600082825260208201905092915050565b7f5265656e7472616e637947756172643a207265656e7472616e742063616c6c00600082015250565b6000611797601f83611750565b91506117a282611761565b602082019050919050565b600060208201905081810360008301526117c68161178a565b9050919050565b60006060820190506117e2600083018661145f565b6117ef602083018561145f565b6117fc6040830184611450565b94935050505056fea26469706673582212205e63c7bb4fd0aa16a2b46cb31a913487fdbcc6e05df26cc916ead796273f096764736f6c634300080a0033",
  "immutableReferences": {},
  "source": "// SPDX-License-Identifier: MIT\r\npragma solidity >=0.4.22 <0.9.0;\r\n\r\nimport \"@openzeppelin/contracts/security/ReentrancyGuard.sol\";\r\nimport \"@openzeppelin/contracts/token/ERC721/ERC721.sol\";\r\nimport \"@openzeppelin/contracts/utils/Counters.sol\";\r\n\r\n\r\ncontract NFTMarketplace is ReentrancyGuard {\r\n\r\n    using Counters for Counters.Counter;\r\n\r\n    Counters.Counter itemID;\r\n    Counters.Counter soldItems;\r\n\r\n    address payable owner;\r\n    uint256 public listingPrice = 0.1 ether;\r\n\r\n    struct NFTItem{\r\n        uint256 itemID;\r\n        uint256 tokenNFTID;\r\n        uint256 price;\r\n        address NFTContract;\r\n        address payable owner;\r\n        address payable seller;\r\n        bool sold;\r\n    }\r\n\r\n    mapping(uint256 => NFTItem) public idToNFT;\r\n    mapping(uint256 => bool) public isListed;\r\n\r\n    constructor(){\r\n        owner = payable(msg.sender);\r\n    }\r\n\r\n    function createItem(uint256 _tokenId, uint256 _price, address _NFTContract) public payable nonReentrant returns(uint256) {\r\n        require(msg.value == listingPrice);\r\n        require(isListed[_tokenId] == false);\r\n        require(_price > 0);\r\n\r\n        itemID.increment();\r\n        uint256 newItemID = itemID.current();\r\n\r\n        NFTItem storage newNFT = idToNFT[newItemID];\r\n\r\n        newNFT.itemID = newItemID;\r\n        newNFT.tokenNFTID = _tokenId;\r\n        newNFT.NFTContract = _NFTContract;\r\n        newNFT.owner = payable(address(0));\r\n        newNFT.seller = payable(msg.sender);\r\n        newNFT.price = _price;\r\n        newNFT.sold = false;\r\n\r\n        ERC721(_NFTContract).transferFrom(msg.sender, address(this), _tokenId);\r\n\r\n        return _tokenId;\r\n    }\r\n\r\n    function BuyItem(uint256 _itemID, address _NFTContract) public payable nonReentrant returns(uint256){\r\n        uint256 NFTprice = idToNFT[_itemID].price;\r\n        uint256 NFTtokenID = idToNFT[_itemID].tokenNFTID;\r\n\r\n        require(msg.value == NFTprice);\r\n\r\n        idToNFT[_itemID].seller.transfer(msg.value);\r\n        ERC721(_NFTContract).transferFrom(address(this), msg.sender, NFTtokenID);\r\n        idToNFT[_itemID].owner = payable(msg.sender);\r\n        idToNFT[_itemID].sold = true;\r\n\r\n        payable(owner).transfer(listingPrice);\r\n        soldItems.increment();\r\n\r\n        return NFTtokenID;\r\n    }\r\n\r\n    function getMarketItems() external view returns(NFTItem[] memory){\r\n        uint256 totalItems = itemID.current();\r\n        uint256 unSoldItems = totalItems - soldItems.current();\r\n\r\n        uint256 currentIndex = 0;\r\n\r\n        NFTItem[] memory marketItems = new NFTItem[](unSoldItems);\r\n\r\n        for (uint256 i = 0; i < totalItems; i++){\r\n            if(idToNFT[i+1].owner == address(0)){\r\n                uint256 currentItemId = idToNFT[i+1].itemID;\r\n                NFTItem storage currentItem = idToNFT[currentItemId];\r\n                marketItems[currentIndex] = currentItem;\r\n                currentIndex+=1;\r\n            }\r\n        }\r\n\r\n        return marketItems;\r\n    }\r\n\r\n    function getMyNFTItems() external view returns(NFTItem[] memory){\r\n        uint256 totalItems = itemID.current();\r\n        uint256 itemCount = 0;\r\n\r\n        for(uint256 i = 0; i < totalItems; i++){\r\n            if(idToNFT[i+1].owner == msg.sender){\r\n                itemCount+=1;\r\n            }\r\n        }\r\n\r\n        uint256 currentIndex = 0;\r\n        NFTItem[] memory marketItems = new NFTItem[](itemCount);\r\n\r\n        for (uint256 i = 0; i < totalItems; i++){\r\n            if(idToNFT[i+1].owner == msg.sender){\r\n                uint256 currentItemId = idToNFT[i+1].itemID;\r\n                NFTItem storage currentItem = idToNFT[currentItemId];\r\n                marketItems[currentIndex] = currentItem;\r\n                currentIndex+=1;\r\n            }\r\n        }\r\n\r\n        return marketItems;\r\n    }\r\n\r\n    function getMyNFTForSale() external view returns(NFTItem[] memory){\r\n        uint256 totalItems = itemID.current();\r\n        uint256 itemCount = 0;\r\n\r\n        for(uint256 i = 0; i < totalItems; i++){\r\n            if(idToNFT[i+1].seller == msg.sender){\r\n                itemCount+=1;\r\n            }\r\n        }\r\n\r\n        uint256 currentIndex = 0;\r\n        NFTItem[] memory marketItems = new NFTItem[](itemCount);\r\n\r\n        for (uint256 i = 0; i < totalItems; i++){\r\n            if(idToNFT[i+1].seller == msg.sender){\r\n                uint256 currentItemId = idToNFT[i+1].itemID;\r\n                NFTItem storage currentItem = idToNFT[currentItemId];\r\n                marketItems[currentIndex] = currentItem;\r\n                currentIndex+=1;\r\n            }\r\n        }\r\n        \r\n        return marketItems;\r\n    }\r\n}\r\n",
  "sourcePath": "C:\\Users\\JS\\Desktop\\NFTMarketPlace\\contracts\\NFTMarketplace.sol",
  "compiler": {
    "name": "solc",
    "version": "0.8.10+commit.fc410830.Emscripten.clang"
  },
  "schemaVersion": "3.4.4",
  "updatedAt": "2022-03-04T11:33:19.484Z",
  "networkType": "ethereum",
  "devdoc": {
    "kind": "dev",
    "methods": {},
    "version": 1
  },
  "userdoc": {
    "kind": "user",
    "methods": {},
    "version": 1
  }
}